:020000040000fa
:080000000002040000000000f2
:020000040000fa
:100400000f852000807f240000018800000000008c
:10041000050007000c000700a00202000000000019
:100420000040da000000fe004440a9000000200067
:100430000000e0000300320000002000a00188005e
:100440004440a800000006002034200001002000e5
:100450001600370062004000e080480091018800eb
:100460009001ba0062004000e080480091018800dd
:100470009002ba0062004000e08048000002eb00f9
:100480006028e10005003a008301e900070033001d
:10049000038009000059eb00040037006128e100e7
:1004a000010032000082eb00050007009101880086
:1004b0001001ba000200e000e6ff3a00000005006b
:1004c000910188008002780062004000e0804800ce
:1004d0003559ba008301e900080032002559ba00f5
:1004e0008301e900050032000400e000f4ff32005f
:1004f00015d9ba008301e900f1ff3a0000000600b7
:10050000103a80000030a100217420000600fc0099
:100510006204200073052000824878008348780038
:100520008048780000000600c8a2a900000006006c
:10053000cca2aa00cca2aa00fdff37000000060052
:100540000000fa0060022000303a880044c7bf0073
:10055000f043b20044e7b7004174200091407800b6
:1005600000ceb30000c0600044e7b70040a7a90078
:100570003200200081072000a009200033742000f1
:100580008149780080497800824978001200200073
:100590006104200070052000237420008149780048
:1005a000804978008249780043c7bf0002c7b30082
:1005b0008240600000c3b30080cf5000faff3a00d1
:1005c00042c7bf000042b2000004e000fcff32005e
:1005d000d5ff0700d6ff0700feff37003600f80002
:1005e000809fbe00829fbe00849fbe00869fbe008b
:1005f0000000fa00c2ff07008020a9000080fa0076
:100600004f03be004f02be004f01be004f00be00b0
:100610003600f900004006000000fa008060a900e2
:10062000ffff37000000fa008040a900ffff3700fd
:100630000000fa008080a900ffff37000000fa00e8
:1006400080a0a900ffff37000000fa008020a90069
:10065000ffff37000000fa008060a900ffff3700ad
:100660000000fa008040a900ffff37000000fa00f8
:100670008080a900ffff37000000fa0080a0a900d9
:04068000ffff370041
:020000040000fa
:0200000401f009
:04000c00f8ff0000f9
:020000040000fa
:0200000401f009
:040010007dff000070
:020000040000fa
:0200000401f009
:040014007fff00006a
:020000040000fa
:1000080044030000ee0200000c030000120300008d
:10001800180300001e03000044030000440300000e
:1000280044030000440300004403000044030000ac
:10003800440300004403000044030000440300009c
:10004800440300004403000044030000440300008c
:10005800440300004403000044030000440300007c
:10006800440300004403000044030000440300006c
:10007800440300004403000044030000440300005c
:10008800440300004403000044030000440300004c
:10009800440300004403000044030000440300003c
:1000a800440300004403000044030000440300002c
:1000b800440300004403000044030000440300001c
:1000c800440300004403000044030000440300000c
:1000d80044030000440300004403000044030000fc
:1000e80044030000440300004403000044030000ec
:1000f80044030000440300004403000044030000dc
:1001080044030000440300004403000044030000cb
:1001180044030000440300004403000044030000bb
:1001280044030000440300004403000044030000ab
:10013800440300004403000044030000440300009b
:10014800440300004403000044030000440300008b
:10015800440300004403000044030000440300007b
:10016800440300004403000044030000440300006b
:10017800440300004403000044030000440300005b
:10018800440300004403000044030000440300004b
:10019800440300004403000044030000440300003b
:1001a800440300004403000044030000440300002b
:1001b800440300004403000044030000440300001b
:1001c800440300004403000044030000440300000b
:1001d80044030000440300004403000044030000fb
:1001e80044030000440300004403000044030000eb
:0801f800440300004403000071
:020000040000fa
:1002080044030000240300002a0300003003000018
:10021800360300003c0300004403000044030000d0
:1002280044030000440300004403000044030000aa
:10023800440300004403000044030000440300009a
:10024800440300004403000044030000440300008a
:10025800440300004403000044030000440300007a
:10026800440300004403000044030000440300006a
:10027800440300004403000044030000440300005a
:10028800440300004403000044030000440300004a
:10029800440300004403000044030000440300003a
:1002a800440300004403000044030000440300002a
:1002b800440300004403000044030000440300001a
:1002c800440300004403000044030000440300000a
:1002d80044030000440300004403000044030000fa
:1002e80044030000440300004403000044030000ea
:1002f80044030000440300004403000044030000da
:1003080044030000440300004403000044030000c9
:1003180044030000440300004403000044030000b9
:1003280044030000440300004403000044030000a9
:100338004403000044030000440300004403000099
:100348004403000044030000440300004403000089
:100358004403000044030000440300004403000079
:100368004403000044030000440300004403000069
:100378004403000044030000440300004403000059
:100388004403000044030000440300004403000049
:100398004403000044030000440300004403000039
:1003a8004403000044030000440300004403000029
:1003b8004403000044030000440300004403000019
:1003c8004403000044030000440300004403000009
:1003d80044030000440300004403000044030000f9
:1003e80044030000440300004403000044030000e9
:0803f80044030000440300006f
:020000040000fa
:040684000000000072
:020000040000fa
:040688000000fe0070
:00000001FF
